{
  "_format": "hh-sol-artifact-1",
  "contractName": "Token",
  "sourceName": "contracts/Token.sol",
  "abi": [
    {
      "inputs": [],
      "stateMutability": "nonpayable",
      "type": "constructor"
    },
    {
      "inputs": [
        {
          "internalType": "address",
          "name": "account",
          "type": "address"
        }
      ],
      "name": "balanceOf",
      "outputs": [
        {
          "internalType": "uint256",
          "name": "",
          "type": "uint256"
        }
      ],
      "stateMutability": "view",
      "type": "function"
    },
    {
      "inputs": [],
      "name": "name",
      "outputs": [
        {
          "internalType": "string",
          "name": "",
          "type": "string"
        }
      ],
      "stateMutability": "view",
      "type": "function"
    },
    {
      "inputs": [],
      "name": "symbol",
      "outputs": [
        {
          "internalType": "string",
          "name": "",
          "type": "string"
        }
      ],
      "stateMutability": "view",
      "type": "function"
    },
    {
      "inputs": [],
      "name": "totalSupply",
      "outputs": [
        {
          "internalType": "uint256",
          "name": "",
          "type": "uint256"
        }
      ],
      "stateMutability": "view",
      "type": "function"
    },
    {
      "inputs": [
        {
          "internalType": "address",
          "name": "to",
          "type": "address"
        },
        {
          "internalType": "uint256",
          "name": "amount",
          "type": "uint256"
        }
      ],
      "name": "transfer",
      "outputs": [],
      "stateMutability": "nonpayable",
      "type": "function"
    }
  ],
  "bytecode": "0x60806040526040518060400160405280600c81526020017f5669634b797220546f6b656e00000000000000000000000000000000000000008152506000908051906020019062000051929190620001e3565b506040518060400160405280600381526020017f564b540000000000000000000000000000000000000000000000000000000000815250600190805190602001906200009f929190620001e3565b50620f4240600255348015620000b457600080fd5b50600254600360003373ffffffffffffffffffffffffffffffffffffffff1673ffffffffffffffffffffffffffffffffffffffff1681526020019081526020016000208190555062000111336200011760201b6200039f1760201c565b6200035a565b620001b7816040516024016200012e9190620002a4565b6040516020818303038152906040527f2c2ecbc2000000000000000000000000000000000000000000000000000000007bffffffffffffffffffffffffffffffffffffffffffffffffffffffff19166020820180517bffffffffffffffffffffffffffffffffffffffffffffffffffffffff8381831617835250505050620001ba60201b60201c565b50565b60008151905060006a636f6e736f6c652e6c6f679050602083016000808483855afa5050505050565b828054620001f190620002f5565b90600052602060002090601f01602090048101928262000215576000855562000261565b82601f106200023057805160ff191683800117855562000261565b8280016001018555821562000261579182015b828111156200026057825182559160200191906001019062000243565b5b50905062000270919062000274565b5090565b5b808211156200028f57600081600090555060010162000275565b5090565b6200029e81620002c1565b82525050565b6000602082019050620002bb600083018462000293565b92915050565b6000620002ce82620002d5565b9050919050565b600073ffffffffffffffffffffffffffffffffffffffff82169050919050565b600060028204905060018216806200030e57607f821691505b602082108114156200032557620003246200032b565b5b50919050565b7f4e487b7100000000000000000000000000000000000000000000000000000000600052602260045260246000fd5b610825806200036a6000396000f3fe608060405234801561001057600080fd5b50600436106100575760003560e01c806306fdde031461005c57806318160ddd1461007a57806370a082311461009857806395d89b41146100c8578063a9059cbb146100e6575b600080fd5b610064610102565b6040516100719190610585565b60405180910390f35b610082610190565b60405161008f91906105c7565b60405180910390f35b6100b260048036038101906100ad919061048b565b610196565b6040516100bf91906105c7565b60405180910390f35b6100d06101df565b6040516100dd9190610585565b60405180910390f35b61010060048036038101906100fb91906104b4565b61026d565b005b6000805461010f906106f7565b80601f016020809104026020016040519081016040528092919081815260200182805461013b906106f7565b80156101885780601f1061015d57610100808354040283529160200191610188565b820191906000526020600020905b81548152906001019060200180831161016b57829003601f168201915b505050505081565b60025481565b6000600360008373ffffffffffffffffffffffffffffffffffffffff1673ffffffffffffffffffffffffffffffffffffffff168152602001908152602001600020549050919050565b600180546101ec906106f7565b80601f0160208091040260200160405190810160405280929190818152602001828054610218906106f7565b80156102655780601f1061023a57610100808354040283529160200191610265565b820191906000526020600020905b81548152906001019060200180831161024857829003601f168201915b505050505081565b80600360003373ffffffffffffffffffffffffffffffffffffffff1673ffffffffffffffffffffffffffffffffffffffff1681526020019081526020016000205410156102ef576040517f08c379a00000000000000000000000000000000000000000000000000000000081526004016102e6906105a7565b60405180910390fd5b80600360003373ffffffffffffffffffffffffffffffffffffffff1673ffffffffffffffffffffffffffffffffffffffff168152602001908152602001600020600082825461033e9190610654565b9250508190555080600360008473ffffffffffffffffffffffffffffffffffffffff1673ffffffffffffffffffffffffffffffffffffffff168152602001908152602001600020600082825461039491906105fe565b925050819055505050565b610435816040516024016103b3919061056a565b6040516020818303038152906040527f2c2ecbc2000000000000000000000000000000000000000000000000000000007bffffffffffffffffffffffffffffffffffffffffffffffffffffffff19166020820180517bffffffffffffffffffffffffffffffffffffffffffffffffffffffff8381831617835250505050610438565b50565b60008151905060006a636f6e736f6c652e6c6f679050602083016000808483855afa5050505050565b600081359050610470816107c1565b92915050565b600081359050610485816107d8565b92915050565b60006020828403121561049d57600080fd5b60006104ab84828501610461565b91505092915050565b600080604083850312156104c757600080fd5b60006104d585828601610461565b92505060206104e685828601610476565b9150509250929050565b6104f981610688565b82525050565b600061050a826105e2565b61051481856105ed565b93506105248185602086016106c4565b61052d81610787565b840191505092915050565b60006105456011836105ed565b915061055082610798565b602082019050919050565b610564816106ba565b82525050565b600060208201905061057f60008301846104f0565b92915050565b6000602082019050818103600083015261059f81846104ff565b905092915050565b600060208201905081810360008301526105c081610538565b9050919050565b60006020820190506105dc600083018461055b565b92915050565b600081519050919050565b600082825260208201905092915050565b6000610609826106ba565b9150610614836106ba565b9250827fffffffffffffffffffffffffffffffffffffffffffffffffffffffffffffffff0382111561064957610648610729565b5b828201905092915050565b600061065f826106ba565b915061066a836106ba565b92508282101561067d5761067c610729565b5b828203905092915050565b60006106938261069a565b9050919050565b600073ffffffffffffffffffffffffffffffffffffffff82169050919050565b6000819050919050565b60005b838110156106e25780820151818401526020810190506106c7565b838111156106f1576000848401525b50505050565b6000600282049050600182168061070f57607f821691505b6020821081141561072357610722610758565b5b50919050565b7f4e487b7100000000000000000000000000000000000000000000000000000000600052601160045260246000fd5b7f4e487b7100000000000000000000000000000000000000000000000000000000600052602260045260246000fd5b6000601f19601f8301169050919050565b7f4e6f7420656e6f75676820746f6b656e73000000000000000000000000000000600082015250565b6107ca81610688565b81146107d557600080fd5b50565b6107e1816106ba565b81146107ec57600080fd5b5056fea2646970667358221220485123a278a8a35f942beda9d7d5f20a053dcf845929e3fcd8c243575cdaff6464736f6c63430008040033",
  "linkReferences": {},
  "deployedLinkReferences": {}
}