{
  "_format": "hh-sol-artifact-1",
  "contractName": "MultiSig",
  "sourceName": "contracts/MultiSig.sol",
  "abi": [
    {
      "inputs": [],
      "stateMutability": "nonpayable",
      "type": "constructor"
    },
    {
      "inputs": [],
      "name": "Action",
      "outputs": [],
      "stateMutability": "nonpayable",
      "type": "function"
    },
    {
      "inputs": [
        {
          "internalType": "address",
          "name": "newSigner",
          "type": "address"
        }
      ],
      "name": "AddSigner",
      "outputs": [],
      "stateMutability": "nonpayable",
      "type": "function"
    },
    {
      "inputs": [],
      "name": "Sign",
      "outputs": [],
      "stateMutability": "nonpayable",
      "type": "function"
    },
    {
      "inputs": [
        {
          "internalType": "address",
          "name": "",
          "type": "address"
        }
      ],
      "name": "signers",
      "outputs": [
        {
          "internalType": "address",
          "name": "plp",
          "type": "address"
        },
        {
          "internalType": "bool",
          "name": "signed",
          "type": "bool"
        }
      ],
      "stateMutability": "view",
      "type": "function"
    }
  ],
  "bytecode": "0x608060405234801561001057600080fd5b50336000806101000a81548173ffffffffffffffffffffffffffffffffffffffff021916908373ffffffffffffffffffffffffffffffffffffffff1602179055506108d8806100606000396000f3fe608060405234801561001057600080fd5b506004361061004c5760003560e01c8063637c77a214610051578063736c0d5b1461006d578063b5d7df971461009e578063c434f331146100a8575b600080fd5b61006b60048036038101906100669190610634565b6100b2565b005b61008760048036038101906100829190610634565b610247565b6040516100959291906106d7565b60405180910390f35b6100a6610298565b005b6100b06103cf565b005b60008054906101000a900473ffffffffffffffffffffffffffffffffffffffff1673ffffffffffffffffffffffffffffffffffffffff163373ffffffffffffffffffffffffffffffffffffffff161461010a57600080fd5b60405180604001604052808273ffffffffffffffffffffffffffffffffffffffff16815260200160001515815250600360008373ffffffffffffffffffffffffffffffffffffffff1673ffffffffffffffffffffffffffffffffffffffff16815260200190815260200160002060008201518160000160006101000a81548173ffffffffffffffffffffffffffffffffffffffff021916908373ffffffffffffffffffffffffffffffffffffffff16021790555060208201518160000160146101000a81548160ff0219169083151502179055509050506001819080600181540180825580915050600190039060005260206000200160009091909190916101000a81548173ffffffffffffffffffffffffffffffffffffffff021916908373ffffffffffffffffffffffffffffffffffffffff16021790555050565b60036020528060005260406000206000915090508060000160009054906101000a900473ffffffffffffffffffffffffffffffffffffffff16908060000160149054906101000a900460ff16905082565b600073ffffffffffffffffffffffffffffffffffffffff16600360003373ffffffffffffffffffffffffffffffffffffffff1673ffffffffffffffffffffffffffffffffffffffff16815260200190815260200160002060000160009054906101000a900473ffffffffffffffffffffffffffffffffffffffff1673ffffffffffffffffffffffffffffffffffffffff16141561036a576040517f08c379a000000000000000000000000000000000000000000000000000000000815260040161036190610722565b60405180910390fd5b6001600360003373ffffffffffffffffffffffffffffffffffffffff1673ffffffffffffffffffffffffffffffffffffffff16815260200190815260200160002060000160146101000a81548160ff0219169083151502179055506103cd6103cf565b565b600060019050600060018054905014156103e857600090505b60005b6001805490508110156104cf5760011515600360006001848154811061043a577f4e487b7100000000000000000000000000000000000000000000000000000000600052603260045260246000fd5b9060005260206000200160009054906101000a900473ffffffffffffffffffffffffffffffffffffffff1673ffffffffffffffffffffffffffffffffffffffff1673ffffffffffffffffffffffffffffffffffffffff16815260200190815260200160002060000160149054906101000a900460ff161515146104bc57600091505b80806104c7906107d9565b9150506103eb565b5060001515811515141561051c5761051b6040518060400160405280601181526020017f5369676e7320617265206d697373696e6700000000000000000000000000000081525061055d565b5b61055a6040518060400160405280601081526020017f596f757220616374696f6e20686572650000000000000000000000000000000081525061055d565b50565b6105f3816040516024016105719190610700565b6040516020818303038152906040527f41304fac000000000000000000000000000000000000000000000000000000007bffffffffffffffffffffffffffffffffffffffffffffffffffffffff19166020820180517bffffffffffffffffffffffffffffffffffffffffffffffffffffffff83818316178352505050506105f6565b50565b60008151905060006a636f6e736f6c652e6c6f679050602083016000808483855afa5050505050565b60008135905061062e8161088b565b92915050565b60006020828403121561064657600080fd5b60006106548482850161061f565b91505092915050565b6106668161075e565b82525050565b61067581610770565b82525050565b600061068682610742565b610690818561074d565b93506106a08185602086016107a6565b6106a981610851565b840191505092915050565b60006106c160108361074d565b91506106cc82610862565b602082019050919050565b60006040820190506106ec600083018561065d565b6106f9602083018461066c565b9392505050565b6000602082019050818103600083015261071a818461067b565b905092915050565b6000602082019050818103600083015261073b816106b4565b9050919050565b600081519050919050565b600082825260208201905092915050565b60006107698261077c565b9050919050565b60008115159050919050565b600073ffffffffffffffffffffffffffffffffffffffff82169050919050565b6000819050919050565b60005b838110156107c45780820151818401526020810190506107a9565b838111156107d3576000848401525b50505050565b60006107e48261079c565b91507fffffffffffffffffffffffffffffffffffffffffffffffffffffffffffffffff82141561081757610816610822565b5b600182019050919050565b7f4e487b7100000000000000000000000000000000000000000000000000000000600052601160045260246000fd5b6000601f19601f8301169050919050565b7f57686f2061726520796f753f2034303300000000000000000000000000000000600082015250565b6108948161075e565b811461089f57600080fd5b5056fea26469706673582212203b5ca95ada768c488fddf247e2dd6ebca7ad6381b17167b599f323a7c73f264864736f6c63430008040033",
  "linkReferences": {},
  "deployedLinkReferences": {}
}