{
  "_format": "hh-sol-artifact-1",
  "contractName": "MultiSig",
  "sourceName": "contracts/MultiSig.sol",
  "abi": [
    {
      "inputs": [],
      "stateMutability": "nonpayable",
      "type": "constructor"
    },
    {
      "inputs": [],
      "name": "Action",
      "outputs": [],
      "stateMutability": "nonpayable",
      "type": "function"
    },
    {
      "inputs": [
        {
          "internalType": "address",
          "name": "newSigner",
          "type": "address"
        }
      ],
      "name": "AddSigner",
      "outputs": [],
      "stateMutability": "nonpayable",
      "type": "function"
    },
    {
      "inputs": [],
      "name": "Sign",
      "outputs": [],
      "stateMutability": "nonpayable",
      "type": "function"
    },
    {
      "inputs": [
        {
          "internalType": "address",
          "name": "",
          "type": "address"
        }
      ],
      "name": "signers",
      "outputs": [
        {
          "internalType": "address",
          "name": "plp",
          "type": "address"
        },
        {
          "internalType": "bool",
          "name": "signed",
          "type": "bool"
        }
      ],
      "stateMutability": "view",
      "type": "function"
    },
    {
      "stateMutability": "payable",
      "type": "receive"
    }
  ],
  "bytecode": "0x608060405234801561001057600080fd5b50336000806101000a81548173ffffffffffffffffffffffffffffffffffffffff021916908373ffffffffffffffffffffffffffffffffffffffff16021790555061157f806100606000396000f3fe6080604052600436106100435760003560e01c8063637c77a21461004f578063736c0d5b14610078578063b5d7df97146100b6578063c434f331146100cd5761004a565b3661004a57005b600080fd5b34801561005b57600080fd5b5061007660048036038101906100719190610e3e565b6100e4565b005b34801561008457600080fd5b5061009f600480360381019061009a9190610e3e565b610279565b6040516100ad929190610f4b565b60405180910390f35b3480156100c257600080fd5b506100cb6102ca565b005b3480156100d957600080fd5b506100e26104d7565b005b60008054906101000a900473ffffffffffffffffffffffffffffffffffffffff1673ffffffffffffffffffffffffffffffffffffffff163373ffffffffffffffffffffffffffffffffffffffff161461013c57600080fd5b60405180604001604052808273ffffffffffffffffffffffffffffffffffffffff16815260200160001515815250600360008373ffffffffffffffffffffffffffffffffffffffff1673ffffffffffffffffffffffffffffffffffffffff16815260200190815260200160002060008201518160000160006101000a81548173ffffffffffffffffffffffffffffffffffffffff021916908373ffffffffffffffffffffffffffffffffffffffff16021790555060208201518160000160146101000a81548160ff0219169083151502179055509050506001819080600181540180825580915050600190039060005260206000200160009091909190916101000a81548173ffffffffffffffffffffffffffffffffffffffff021916908373ffffffffffffffffffffffffffffffffffffffff16021790555050565b60036020528060005260406000206000915090508060000160009054906101000a900473ffffffffffffffffffffffffffffffffffffffff16908060000160149054906101000a900460ff16905082565b600073ffffffffffffffffffffffffffffffffffffffff16600360003373ffffffffffffffffffffffffffffffffffffffff1673ffffffffffffffffffffffffffffffffffffffff16815260200190815260200160002060000160009054906101000a900473ffffffffffffffffffffffffffffffffffffffff1673ffffffffffffffffffffffffffffffffffffffff1614156103a05761039f6040518060400160405280600f81526020017f756e6b6e6f776e206163636f756e740000000000000000000000000000000000815250610672565b5b600073ffffffffffffffffffffffffffffffffffffffff16600360003373ffffffffffffffffffffffffffffffffffffffff1673ffffffffffffffffffffffffffffffffffffffff16815260200190815260200160002060000160009054906101000a900473ffffffffffffffffffffffffffffffffffffffff1673ffffffffffffffffffffffffffffffffffffffff161415610472576040517f08c379a000000000000000000000000000000000000000000000000000000000815260040161046990610fd1565b60405180910390fd5b6001600360003373ffffffffffffffffffffffffffffffffffffffff1673ffffffffffffffffffffffffffffffffffffffff16815260200190815260200160002060000160146101000a81548160ff0219169083151502179055506104d56104d7565b565b600060019050600060018054905014156104f057600090505b60005b6001805490508110156105d757600115156003600060018481548110610542577f4e487b7100000000000000000000000000000000000000000000000000000000600052603260045260246000fd5b9060005260206000200160009054906101000a900473ffffffffffffffffffffffffffffffffffffffff1673ffffffffffffffffffffffffffffffffffffffff1673ffffffffffffffffffffffffffffffffffffffff16815260200190815260200160002060000160149054906101000a900460ff161515146105c457600091505b80806105cf90611418565b9150506104f3565b50600015158115151415610628576106236040518060400160405280601181526020017f5369676e7320617265206d697373696e67000000000000000000000000000000815250610672565b61066f565b6106666040518060400160405280601081526020017f596f757220616374696f6e206865726500000000000000000000000000000000815250610672565b61066e61070b565b5b50565b610708816040516024016106869190610f8f565b6040516020818303038152906040527f41304fac000000000000000000000000000000000000000000000000000000007bffffffffffffffffffffffffffffffffffffffffffffffffffffffff19166020820180517bffffffffffffffffffffffffffffffffffffffffffffffffffffffff8381831617835250505050610a53565b50565b600047905061071e600180549050610a7c565b60005b600180549050811015610a4f576108056108006003600060018581548110610772577f4e487b7100000000000000000000000000000000000000000000000000000000600052603260045260246000fd5b9060005260206000200160009054906101000a900473ffffffffffffffffffffffffffffffffffffffff1673ffffffffffffffffffffffffffffffffffffffff1673ffffffffffffffffffffffffffffffffffffffff16815260200190815260200160002060000160009054906101000a900473ffffffffffffffffffffffffffffffffffffffff16610b15565b610672565b60006003600060018481548110610845577f4e487b7100000000000000000000000000000000000000000000000000000000600052603260045260246000fd5b9060005260206000200160009054906101000a900473ffffffffffffffffffffffffffffffffffffffff1673ffffffffffffffffffffffffffffffffffffffff1673ffffffffffffffffffffffffffffffffffffffff16815260200190815260200160002060000160009054906101000a900473ffffffffffffffffffffffffffffffffffffffff16905061090e6040518060400160405280601781526020017f70617961626c6520616464726573732063726561746564000000000000000000815250610672565b6001805490508361091f91906110c0565b47106109fc576000808273ffffffffffffffffffffffffffffffffffffffff166001805490508661095091906110c0565b60405161095c90610f36565b60006040518083038185875af1925050503d8060008114610999576040519150601f19603f3d011682016040523d82523d6000602084013e61099e565b606091505b50915091506109ac82610d4a565b816109ec576040517f08c379a00000000000000000000000000000000000000000000000000000000081526004016109e390610fb1565b60405180910390fd5b6109f547610a7c565b5050610a3b565b610a3a6040518060400160405280601281526020017f496e73756666696369656e742066756e64730000000000000000000000000000815250610672565b5b508080610a4790611418565b915050610721565b5050565b60008151905060006a636f6e736f6c652e6c6f679050602083016000808483855afa5050505050565b610b1281604051602401610a909190610ff1565b6040516020818303038152906040527ff5b1bba9000000000000000000000000000000000000000000000000000000007bffffffffffffffffffffffffffffffffffffffffffffffffffffffff19166020820180517bffffffffffffffffffffffffffffffffffffffffffffffffffffffff8381831617835250505050610a53565b50565b60606000602867ffffffffffffffff811115610b5a577f4e487b7100000000000000000000000000000000000000000000000000000000600052604160045260246000fd5b6040519080825280601f01601f191660200182016040528015610b8c5781602001600182028036833780820191505090505b50905060005b6014811015610d40576000816013610baa9190611328565b6008610bb69190611293565b6002610bc29190611175565b8573ffffffffffffffffffffffffffffffffffffffff16610be391906110c0565b60f81b9050600060108260f81c610bfa91906110f1565b60f81b905060008160f81c6010610c1191906112ed565b8360f81c610c1f919061135c565b60f81b9050610c2d82610de3565b85856002610c3b9190611293565b81518110610c72577f4e487b7100000000000000000000000000000000000000000000000000000000600052603260045260246000fd5b60200101907effffffffffffffffffffffffffffffffffffffffffffffffffffffffffffff1916908160001a905350610caa81610de3565b856001866002610cba9190611293565b610cc49190611033565b81518110610cfb577f4e487b7100000000000000000000000000000000000000000000000000000000600052603260045260246000fd5b60200101907effffffffffffffffffffffffffffffffffffffffffffffffffffffffffffff1916908160001a9053505050508080610d3890611418565b915050610b92565b5080915050919050565b610de081604051602401610d5e9190610f74565b6040516020818303038152906040527f32458eed000000000000000000000000000000000000000000000000000000007bffffffffffffffffffffffffffffffffffffffffffffffffffffffff19166020820180517bffffffffffffffffffffffffffffffffffffffffffffffffffffffff8381831617835250505050610a53565b50565b6000600a8260f81c60ff161015610e0e5760308260f81c610e049190611089565b60f81b9050610e24565b60578260f81c610e1e9190611089565b60f81b90505b919050565b600081359050610e3881611532565b92915050565b600060208284031215610e5057600080fd5b6000610e5e84828501610e29565b91505092915050565b610e7081611390565b82525050565b610e7f816113a2565b82525050565b6000610e908261100c565b610e9a8185611022565b9350610eaa8185602086016113e5565b610eb3816114bf565b840191505092915050565b6000610ecb601483611022565b9150610ed6826114dd565b602082019050919050565b6000610eee600083611017565b9150610ef982611506565b600082019050919050565b6000610f11601083611022565b9150610f1c82611509565b602082019050919050565b610f30816113ce565b82525050565b6000610f4182610ee1565b9150819050919050565b6000604082019050610f606000830185610e67565b610f6d6020830184610e76565b9392505050565b6000602082019050610f896000830184610e76565b92915050565b60006020820190508181036000830152610fa98184610e85565b905092915050565b60006020820190508181036000830152610fca81610ebe565b9050919050565b60006020820190508181036000830152610fea81610f04565b9050919050565b60006020820190506110066000830184610f27565b92915050565b600081519050919050565b600081905092915050565b600082825260208201905092915050565b600061103e826113ce565b9150611049836113ce565b9250827fffffffffffffffffffffffffffffffffffffffffffffffffffffffffffffffff0382111561107e5761107d611461565b5b828201905092915050565b6000611094826113d8565b915061109f836113d8565b92508260ff038211156110b5576110b4611461565b5b828201905092915050565b60006110cb826113ce565b91506110d6836113ce565b9250826110e6576110e5611490565b5b828204905092915050565b60006110fc826113d8565b9150611107836113d8565b92508261111757611116611490565b5b828204905092915050565b6000808291508390505b600185111561116c5780860481111561114857611147611461565b5b60018516156111575780820291505b8081029050611165856114d0565b945061112c565b94509492505050565b6000611180826113ce565b915061118b836113ce565b92506111b87fffffffffffffffffffffffffffffffffffffffffffffffffffffffffffffffff84846111c0565b905092915050565b6000826111d0576001905061128c565b816111de576000905061128c565b81600181146111f457600281146111fe5761122d565b600191505061128c565b60ff8411156112105761120f611461565b5b8360020a91508482111561122757611226611461565b5b5061128c565b5060208310610133831016604e8410600b84101617156112625782820a90508381111561125d5761125c611461565b5b61128c565b61126f8484846001611122565b9250905081840481111561128657611285611461565b5b81810290505b9392505050565b600061129e826113ce565b91506112a9836113ce565b9250817fffffffffffffffffffffffffffffffffffffffffffffffffffffffffffffffff04831182151516156112e2576112e1611461565b5b828202905092915050565b60006112f8826113d8565b9150611303836113d8565b92508160ff048311821515161561131d5761131c611461565b5b828202905092915050565b6000611333826113ce565b915061133e836113ce565b92508282101561135157611350611461565b5b828203905092915050565b6000611367826113d8565b9150611372836113d8565b92508282101561138557611384611461565b5b828203905092915050565b600061139b826113ae565b9050919050565b60008115159050919050565b600073ffffffffffffffffffffffffffffffffffffffff82169050919050565b6000819050919050565b600060ff82169050919050565b60005b838110156114035780820151818401526020810190506113e8565b83811115611412576000848401525b50505050565b6000611423826113ce565b91507fffffffffffffffffffffffffffffffffffffffffffffffffffffffffffffffff82141561145657611455611461565b5b600182019050919050565b7f4e487b7100000000000000000000000000000000000000000000000000000000600052601160045260246000fd5b7f4e487b7100000000000000000000000000000000000000000000000000000000600052601260045260246000fd5b6000601f19601f8301169050919050565b60008160011c9050919050565b7f4661696c656420746f2073656e64204574686572000000000000000000000000600082015250565b50565b7f57686f2061726520796f753f2034303300000000000000000000000000000000600082015250565b61153b81611390565b811461154657600080fd5b5056fea2646970667358221220f9cd62dcc1b622c91ec82ec71e28b63fe0a49e2b97a627883f8eb2566e4afcf364736f6c63430008040033",
  "linkReferences": {},
  "deployedLinkReferences": {}
}